{
	"contracts/SimpleStorage.sol": {
		"SimpleStorage": {
			"abi": [
				{
					"inputs": [],
					"name": "getNum",
					"outputs": [
						{
							"internalType": "uint32",
							"name": "num_",
							"type": "uint32"
						},
						{
							"internalType": "uint32",
							"name": "vatN_",
							"type": "uint32"
						}
					],
					"stateMutability": "view",
					"type": "function"
				},
				{
					"inputs": [
						{
							"internalType": "uint32",
							"name": "_num",
							"type": "uint32"
						}
					],
					"name": "setNum",
					"outputs": [
						{
							"internalType": "bool",
							"name": "",
							"type": "bool"
						}
					],
					"stateMutability": "nonpayable",
					"type": "function"
				},
				{
					"inputs": [],
					"name": "vaultNumber",
					"outputs": [
						{
							"internalType": "uint32",
							"name": "",
							"type": "uint32"
						}
					],
					"stateMutability": "view",
					"type": "function"
				}
			],
			"devdoc": {
				"kind": "dev",
				"methods": {},
				"version": 1
			},
			"evm": {
				"assembly": "    /* \"contracts/SimpleStorage.sol\":173:990  contract SimpleStorage {... */\n  mstore(0x40, 0x80)\n  callvalue\n  dup1\n  iszero\n  tag_1\n  jumpi\n  revert(0x00, 0x00)\ntag_1:\n  pop\n  dataSize(sub_0)\n  dup1\n  dataOffset(sub_0)\n  0x00\n  codecopy\n  0x00\n  return\nstop\n\nsub_0: assembly {\n        /* \"contracts/SimpleStorage.sol\":173:990  contract SimpleStorage {... */\n      mstore(0x40, 0x80)\n      callvalue\n      dup1\n      iszero\n      tag_1\n      jumpi\n      revert(0x00, 0x00)\n    tag_1:\n      pop\n      jumpi(tag_2, lt(calldatasize, 0x04))\n      shr(0xe0, calldataload(0x00))\n      dup1\n      0x39f172b8\n      eq\n      tag_3\n      jumpi\n      dup1\n      0x67e0badb\n      eq\n      tag_4\n      jumpi\n      dup1\n      0x799a3f88\n      eq\n      tag_5\n      jumpi\n    tag_2:\n      revert(0x00, 0x00)\n        /* \"contracts/SimpleStorage.sol\":327:436  function setNum(uint32 _num) public returns (bool){... */\n    tag_3:\n      tag_6\n      0x04\n      dup1\n      calldatasize\n      sub\n      dup2\n      add\n      swap1\n      tag_7\n      swap2\n      swap1\n      tag_8\n      jump\t// in\n    tag_7:\n      tag_9\n      jump\t// in\n    tag_6:\n      mload(0x40)\n      tag_10\n      swap2\n      swap1\n      tag_11\n      jump\t// in\n    tag_10:\n      mload(0x40)\n      dup1\n      swap2\n      sub\n      swap1\n      return\n        /* \"contracts/SimpleStorage.sol\":444:759  function getNum() public view returns (uint32 num_, uint32 vatN_) {... */\n    tag_4:\n      tag_12\n      tag_13\n      jump\t// in\n    tag_12:\n      mload(0x40)\n      tag_14\n      swap3\n      swap2\n      swap1\n      tag_15\n      jump\t// in\n    tag_14:\n      mload(0x40)\n      dup1\n      swap2\n      sub\n      swap1\n      return\n        /* \"contracts/SimpleStorage.sol\":203:228  uint32 public vaultNumber */\n    tag_5:\n      tag_16\n      tag_17\n      jump\t// in\n    tag_16:\n      mload(0x40)\n      tag_18\n      swap2\n      swap1\n      tag_19\n      jump\t// in\n    tag_18:\n      mload(0x40)\n      dup1\n      swap2\n      sub\n      swap1\n      return\n        /* \"contracts/SimpleStorage.sol\":327:436  function setNum(uint32 _num) public returns (bool){... */\n    tag_9:\n        /* \"contracts/SimpleStorage.sol\":372:376  bool */\n      0x00\n        /* \"contracts/SimpleStorage.sol\":402:406  _num */\n      dup2\n        /* \"contracts/SimpleStorage.sol\":388:399  vaultNumber */\n      0x00\n      0x00\n        /* \"contracts/SimpleStorage.sol\":388:406  vaultNumber = _num */\n      0x0100\n      exp\n      dup2\n      sload\n      dup2\n      0xffffffff\n      mul\n      not\n      and\n      swap1\n      dup4\n      0xffffffff\n      and\n      mul\n      or\n      swap1\n      sstore\n      pop\n        /* \"contracts/SimpleStorage.sol\":424:428  true */\n      0x01\n        /* \"contracts/SimpleStorage.sol\":417:428  return true */\n      swap1\n      pop\n        /* \"contracts/SimpleStorage.sol\":327:436  function setNum(uint32 _num) public returns (bool){... */\n      swap2\n      swap1\n      pop\n      jump\t// out\n        /* \"contracts/SimpleStorage.sol\":444:759  function getNum() public view returns (uint32 num_, uint32 vatN_) {... */\n    tag_13:\n        /* \"contracts/SimpleStorage.sol\":483:494  uint32 num_ */\n      0x00\n        /* \"contracts/SimpleStorage.sol\":496:508  uint32 vatN_ */\n      0x00\n        /* \"contracts/SimpleStorage.sol\":528:539  vaultNumber */\n      0x00\n      0x00\n      swap1\n      sload\n      swap1\n      0x0100\n      exp\n      swap1\n      div\n      0xffffffff\n      and\n        /* \"contracts/SimpleStorage.sol\":521:539  num_ = vaultNumber */\n      swap2\n      pop\n        /* \"contracts/SimpleStorage.sol\":552:562  uint32 vat */\n      0x00\n        /* \"contracts/SimpleStorage.sol\":565:567  25 */\n      0x19\n        /* \"contracts/SimpleStorage.sol\":552:567  uint32 vat = 25 */\n      swap1\n      pop\n        /* \"contracts/SimpleStorage.sol\":671:682  uint32 mul_ */\n      0x00\n        /* \"contracts/SimpleStorage.sol\":684:695  uint32 div_ */\n      0x00\n        /* \"contracts/SimpleStorage.sol\":700:721  calcReward(num_, vat) */\n      tag_22\n        /* \"contracts/SimpleStorage.sol\":711:715  num_ */\n      dup6\n        /* \"contracts/SimpleStorage.sol\":717:720  vat */\n      dup5\n        /* \"contracts/SimpleStorage.sol\":700:710  calcReward */\n      tag_23\n        /* \"contracts/SimpleStorage.sol\":700:721  calcReward(num_, vat) */\n      jump\t// in\n    tag_22:\n        /* \"contracts/SimpleStorage.sol\":670:721  (uint32 mul_, uint32 div_,) = calcReward(num_, vat) */\n      pop\n      swap2\n      pop\n      swap2\n      pop\n        /* \"contracts/SimpleStorage.sol\":747:751  div_ */\n      dup1\n        /* \"contracts/SimpleStorage.sol\":740:744  mul_ */\n      dup3\n        /* \"contracts/SimpleStorage.sol\":740:751  mul_ + div_ */\n      tag_24\n      swap2\n      swap1\n      tag_25\n      jump\t// in\n    tag_24:\n        /* \"contracts/SimpleStorage.sol\":732:751  vatN_ = mul_ + div_ */\n      swap4\n      pop\n        /* \"contracts/SimpleStorage.sol\":510:759  {... */\n      pop\n      pop\n      pop\n        /* \"contracts/SimpleStorage.sol\":444:759  function getNum() public view returns (uint32 num_, uint32 vatN_) {... */\n      swap1\n      swap2\n      jump\t// out\n        /* \"contracts/SimpleStorage.sol\":203:228  uint32 public vaultNumber */\n    tag_17:\n      0x00\n      0x00\n      swap1\n      sload\n      swap1\n      0x0100\n      exp\n      swap1\n      div\n      0xffffffff\n      and\n      dup2\n      jump\t// out\n        /* \"contracts/SimpleStorage.sol\":767:987  function calcReward(uint32 _vaultNum, uint32 _vat) private pure returns (uint32 mul_, uint32 div_ ,uint32 add_ ) {... */\n    tag_23:\n        /* \"contracts/SimpleStorage.sol\":840:851  uint32 mul_ */\n      0x00\n        /* \"contracts/SimpleStorage.sol\":853:864  uint32 div_ */\n      0x00\n        /* \"contracts/SimpleStorage.sol\":866:877  uint32 add_ */\n      0x00\n        /* \"contracts/SimpleStorage.sol\":909:913  _vat */\n      dup4\n        /* \"contracts/SimpleStorage.sol\":897:906  _vaultNum */\n      dup6\n        /* \"contracts/SimpleStorage.sol\":897:913  _vaultNum * _vat */\n      tag_27\n      swap2\n      swap1\n      tag_28\n      jump\t// in\n    tag_27:\n        /* \"contracts/SimpleStorage.sol\":890:913  mul_ = _vaultNum * _vat */\n      swap3\n      pop\n        /* \"contracts/SimpleStorage.sol\":942:946  _vat */\n      dup4\n        /* \"contracts/SimpleStorage.sol\":930:939  _vaultNum */\n      dup6\n        /* \"contracts/SimpleStorage.sol\":930:946  _vaultNum + _vat */\n      tag_29\n      swap2\n      swap1\n      tag_25\n      jump\t// in\n    tag_29:\n        /* \"contracts/SimpleStorage.sol\":923:946  add_ = _vaultNum + _vat */\n      swap1\n      pop\n        /* \"contracts/SimpleStorage.sol\":975:979  _vat */\n      dup4\n        /* \"contracts/SimpleStorage.sol\":963:972  _vaultNum */\n      dup6\n        /* \"contracts/SimpleStorage.sol\":963:979  _vaultNum / _vat */\n      tag_30\n      swap2\n      swap1\n      tag_31\n      jump\t// in\n    tag_30:\n        /* \"contracts/SimpleStorage.sol\":956:979  div_ = _vaultNum / _vat */\n      swap2\n      pop\n        /* \"contracts/SimpleStorage.sol\":767:987  function calcReward(uint32 _vaultNum, uint32 _vat) private pure returns (uint32 mul_, uint32 div_ ,uint32 add_ ) {... */\n      swap3\n      pop\n      swap3\n      pop\n      swap3\n      jump\t// out\n        /* \"#utility.yul\":88:205   */\n    tag_33:\n        /* \"#utility.yul\":197:198   */\n      0x00\n        /* \"#utility.yul\":194:195   */\n      0x00\n        /* \"#utility.yul\":187:199   */\n      revert\n        /* \"#utility.yul\":334:427   */\n    tag_35:\n        /* \"#utility.yul\":370:377   */\n      0x00\n        /* \"#utility.yul\":410:420   */\n      0xffffffff\n        /* \"#utility.yul\":403:408   */\n      dup3\n        /* \"#utility.yul\":399:421   */\n      and\n        /* \"#utility.yul\":388:421   */\n      swap1\n      pop\n        /* \"#utility.yul\":334:427   */\n      swap2\n      swap1\n      pop\n      jump\t// out\n        /* \"#utility.yul\":433:553   */\n    tag_36:\n        /* \"#utility.yul\":505:528   */\n      tag_49\n        /* \"#utility.yul\":522:527   */\n      dup2\n        /* \"#utility.yul\":505:528   */\n      tag_35\n      jump\t// in\n    tag_49:\n        /* \"#utility.yul\":498:503   */\n      dup2\n        /* \"#utility.yul\":495:529   */\n      eq\n        /* \"#utility.yul\":485:547   */\n      tag_50\n      jumpi\n        /* \"#utility.yul\":543:544   */\n      0x00\n        /* \"#utility.yul\":540:541   */\n      0x00\n        /* \"#utility.yul\":533:545   */\n      revert\n        /* \"#utility.yul\":485:547   */\n    tag_50:\n        /* \"#utility.yul\":433:553   */\n      pop\n      jump\t// out\n        /* \"#utility.yul\":559:696   */\n    tag_37:\n        /* \"#utility.yul\":604:609   */\n      0x00\n        /* \"#utility.yul\":642:648   */\n      dup2\n        /* \"#utility.yul\":629:649   */\n      calldataload\n        /* \"#utility.yul\":620:649   */\n      swap1\n      pop\n        /* \"#utility.yul\":658:690   */\n      tag_52\n        /* \"#utility.yul\":684:689   */\n      dup2\n        /* \"#utility.yul\":658:690   */\n      tag_36\n      jump\t// in\n    tag_52:\n        /* \"#utility.yul\":559:696   */\n      swap3\n      swap2\n      pop\n      pop\n      jump\t// out\n        /* \"#utility.yul\":702:1029   */\n    tag_8:\n        /* \"#utility.yul\":760:766   */\n      0x00\n        /* \"#utility.yul\":809:811   */\n      0x20\n        /* \"#utility.yul\":797:806   */\n      dup3\n        /* \"#utility.yul\":788:795   */\n      dup5\n        /* \"#utility.yul\":784:807   */\n      sub\n        /* \"#utility.yul\":780:812   */\n      slt\n        /* \"#utility.yul\":777:896   */\n      iszero\n      tag_54\n      jumpi\n        /* \"#utility.yul\":815:894   */\n      tag_55\n      tag_33\n      jump\t// in\n    tag_55:\n        /* \"#utility.yul\":777:896   */\n    tag_54:\n        /* \"#utility.yul\":935:936   */\n      0x00\n        /* \"#utility.yul\":960:1012   */\n      tag_56\n        /* \"#utility.yul\":1004:1011   */\n      dup5\n        /* \"#utility.yul\":995:1001   */\n      dup3\n        /* \"#utility.yul\":984:993   */\n      dup6\n        /* \"#utility.yul\":980:1002   */\n      add\n        /* \"#utility.yul\":960:1012   */\n      tag_37\n      jump\t// in\n    tag_56:\n        /* \"#utility.yul\":950:1012   */\n      swap2\n      pop\n        /* \"#utility.yul\":906:1022   */\n      pop\n        /* \"#utility.yul\":702:1029   */\n      swap3\n      swap2\n      pop\n      pop\n      jump\t// out\n        /* \"#utility.yul\":1035:1125   */\n    tag_38:\n        /* \"#utility.yul\":1069:1076   */\n      0x00\n        /* \"#utility.yul\":1112:1117   */\n      dup2\n        /* \"#utility.yul\":1105:1118   */\n      iszero\n        /* \"#utility.yul\":1098:1119   */\n      iszero\n        /* \"#utility.yul\":1087:1119   */\n      swap1\n      pop\n        /* \"#utility.yul\":1035:1125   */\n      swap2\n      swap1\n      pop\n      jump\t// out\n        /* \"#utility.yul\":1131:1240   */\n    tag_39:\n        /* \"#utility.yul\":1212:1233   */\n      tag_59\n        /* \"#utility.yul\":1227:1232   */\n      dup2\n        /* \"#utility.yul\":1212:1233   */\n      tag_38\n      jump\t// in\n    tag_59:\n        /* \"#utility.yul\":1207:1210   */\n      dup3\n        /* \"#utility.yul\":1200:1234   */\n      mstore\n        /* \"#utility.yul\":1131:1240   */\n      pop\n      pop\n      jump\t// out\n        /* \"#utility.yul\":1246:1456   */\n    tag_11:\n        /* \"#utility.yul\":1333:1337   */\n      0x00\n        /* \"#utility.yul\":1371:1373   */\n      0x20\n        /* \"#utility.yul\":1360:1369   */\n      dup3\n        /* \"#utility.yul\":1356:1374   */\n      add\n        /* \"#utility.yul\":1348:1374   */\n      swap1\n      pop\n        /* \"#utility.yul\":1384:1449   */\n      tag_61\n        /* \"#utility.yul\":1446:1447   */\n      0x00\n        /* \"#utility.yul\":1435:1444   */\n      dup4\n        /* \"#utility.yul\":1431:1448   */\n      add\n        /* \"#utility.yul\":1422:1428   */\n      dup5\n        /* \"#utility.yul\":1384:1449   */\n      tag_39\n      jump\t// in\n    tag_61:\n        /* \"#utility.yul\":1246:1456   */\n      swap3\n      swap2\n      pop\n      pop\n      jump\t// out\n        /* \"#utility.yul\":1462:1577   */\n    tag_40:\n        /* \"#utility.yul\":1547:1570   */\n      tag_63\n        /* \"#utility.yul\":1564:1569   */\n      dup2\n        /* \"#utility.yul\":1547:1570   */\n      tag_35\n      jump\t// in\n    tag_63:\n        /* \"#utility.yul\":1542:1545   */\n      dup3\n        /* \"#utility.yul\":1535:1571   */\n      mstore\n        /* \"#utility.yul\":1462:1577   */\n      pop\n      pop\n      jump\t// out\n        /* \"#utility.yul\":1583:1907   */\n    tag_15:\n        /* \"#utility.yul\":1700:1704   */\n      0x00\n        /* \"#utility.yul\":1738:1740   */\n      0x40\n        /* \"#utility.yul\":1727:1736   */\n      dup3\n        /* \"#utility.yul\":1723:1741   */\n      add\n        /* \"#utility.yul\":1715:1741   */\n      swap1\n      pop\n        /* \"#utility.yul\":1751:1820   */\n      tag_65\n        /* \"#utility.yul\":1817:1818   */\n      0x00\n        /* \"#utility.yul\":1806:1815   */\n      dup4\n        /* \"#utility.yul\":1802:1819   */\n      add\n        /* \"#utility.yul\":1793:1799   */\n      dup6\n        /* \"#utility.yul\":1751:1820   */\n      tag_40\n      jump\t// in\n    tag_65:\n        /* \"#utility.yul\":1830:1900   */\n      tag_66\n        /* \"#utility.yul\":1896:1898   */\n      0x20\n        /* \"#utility.yul\":1885:1894   */\n      dup4\n        /* \"#utility.yul\":1881:1899   */\n      add\n        /* \"#utility.yul\":1872:1878   */\n      dup5\n        /* \"#utility.yul\":1830:1900   */\n      tag_40\n      jump\t// in\n    tag_66:\n        /* \"#utility.yul\":1583:1907   */\n      swap4\n      swap3\n      pop\n      pop\n      pop\n      jump\t// out\n        /* \"#utility.yul\":1913:2131   */\n    tag_19:\n        /* \"#utility.yul\":2004:2008   */\n      0x00\n        /* \"#utility.yul\":2042:2044   */\n      0x20\n        /* \"#utility.yul\":2031:2040   */\n      dup3\n        /* \"#utility.yul\":2027:2045   */\n      add\n        /* \"#utility.yul\":2019:2045   */\n      swap1\n      pop\n        /* \"#utility.yul\":2055:2124   */\n      tag_68\n        /* \"#utility.yul\":2121:2122   */\n      0x00\n        /* \"#utility.yul\":2110:2119   */\n      dup4\n        /* \"#utility.yul\":2106:2123   */\n      add\n        /* \"#utility.yul\":2097:2103   */\n      dup5\n        /* \"#utility.yul\":2055:2124   */\n      tag_40\n      jump\t// in\n    tag_68:\n        /* \"#utility.yul\":1913:2131   */\n      swap3\n      swap2\n      pop\n      pop\n      jump\t// out\n        /* \"#utility.yul\":2137:2317   */\n    tag_41:\n        /* \"#utility.yul\":2185:2262   */\n      0x4e487b7100000000000000000000000000000000000000000000000000000000\n        /* \"#utility.yul\":2182:2183   */\n      0x00\n        /* \"#utility.yul\":2175:2263   */\n      mstore\n        /* \"#utility.yul\":2282:2286   */\n      0x11\n        /* \"#utility.yul\":2279:2280   */\n      0x04\n        /* \"#utility.yul\":2272:2287   */\n      mstore\n        /* \"#utility.yul\":2306:2310   */\n      0x24\n        /* \"#utility.yul\":2303:2304   */\n      0x00\n        /* \"#utility.yul\":2296:2311   */\n      revert\n        /* \"#utility.yul\":2323:2520   */\n    tag_25:\n        /* \"#utility.yul\":2362:2365   */\n      0x00\n        /* \"#utility.yul\":2381:2400   */\n      tag_71\n        /* \"#utility.yul\":2398:2399   */\n      dup3\n        /* \"#utility.yul\":2381:2400   */\n      tag_35\n      jump\t// in\n    tag_71:\n        /* \"#utility.yul\":2376:2400   */\n      swap2\n      pop\n        /* \"#utility.yul\":2414:2433   */\n      tag_72\n        /* \"#utility.yul\":2431:2432   */\n      dup4\n        /* \"#utility.yul\":2414:2433   */\n      tag_35\n      jump\t// in\n    tag_72:\n        /* \"#utility.yul\":2409:2433   */\n      swap3\n      pop\n        /* \"#utility.yul\":2456:2457   */\n      dup3\n        /* \"#utility.yul\":2453:2454   */\n      dup3\n        /* \"#utility.yul\":2449:2458   */\n      add\n        /* \"#utility.yul\":2442:2458   */\n      swap1\n      pop\n        /* \"#utility.yul\":2479:2489   */\n      0xffffffff\n        /* \"#utility.yul\":2474:2477   */\n      dup2\n        /* \"#utility.yul\":2471:2490   */\n      gt\n        /* \"#utility.yul\":2468:2513   */\n      iszero\n      tag_73\n      jumpi\n        /* \"#utility.yul\":2493:2511   */\n      tag_74\n      tag_41\n      jump\t// in\n    tag_74:\n        /* \"#utility.yul\":2468:2513   */\n    tag_73:\n        /* \"#utility.yul\":2323:2520   */\n      swap3\n      swap2\n      pop\n      pop\n      jump\t// out\n        /* \"#utility.yul\":2526:2801   */\n    tag_28:\n        /* \"#utility.yul\":2565:2572   */\n      0x00\n        /* \"#utility.yul\":2588:2607   */\n      tag_76\n        /* \"#utility.yul\":2605:2606   */\n      dup3\n        /* \"#utility.yul\":2588:2607   */\n      tag_35\n      jump\t// in\n    tag_76:\n        /* \"#utility.yul\":2583:2607   */\n      swap2\n      pop\n        /* \"#utility.yul\":2621:2640   */\n      tag_77\n        /* \"#utility.yul\":2638:2639   */\n      dup4\n        /* \"#utility.yul\":2621:2640   */\n      tag_35\n      jump\t// in\n    tag_77:\n        /* \"#utility.yul\":2616:2640   */\n      swap3\n      pop\n        /* \"#utility.yul\":2675:2676   */\n      dup3\n        /* \"#utility.yul\":2672:2673   */\n      dup3\n        /* \"#utility.yul\":2668:2677   */\n      mul\n        /* \"#utility.yul\":2697:2726   */\n      tag_78\n        /* \"#utility.yul\":2714:2725   */\n      dup2\n        /* \"#utility.yul\":2697:2726   */\n      tag_35\n      jump\t// in\n    tag_78:\n        /* \"#utility.yul\":2686:2726   */\n      swap2\n      pop\n        /* \"#utility.yul\":2758:2769   */\n      dup1\n        /* \"#utility.yul\":2749:2756   */\n      dup3\n        /* \"#utility.yul\":2746:2770   */\n      eq\n        /* \"#utility.yul\":2736:2794   */\n      tag_79\n      jumpi\n        /* \"#utility.yul\":2774:2792   */\n      tag_80\n      tag_41\n      jump\t// in\n    tag_80:\n        /* \"#utility.yul\":2736:2794   */\n    tag_79:\n        /* \"#utility.yul\":2573:2801   */\n      pop\n        /* \"#utility.yul\":2526:2801   */\n      swap3\n      swap2\n      pop\n      pop\n      jump\t// out\n        /* \"#utility.yul\":2807:2987   */\n    tag_42:\n        /* \"#utility.yul\":2855:2932   */\n      0x4e487b7100000000000000000000000000000000000000000000000000000000\n        /* \"#utility.yul\":2852:2853   */\n      0x00\n        /* \"#utility.yul\":2845:2933   */\n      mstore\n        /* \"#utility.yul\":2952:2956   */\n      0x12\n        /* \"#utility.yul\":2949:2950   */\n      0x04\n        /* \"#utility.yul\":2942:2957   */\n      mstore\n        /* \"#utility.yul\":2976:2980   */\n      0x24\n        /* \"#utility.yul\":2973:2974   */\n      0x00\n        /* \"#utility.yul\":2966:2981   */\n      revert\n        /* \"#utility.yul\":2993:3175   */\n    tag_31:\n        /* \"#utility.yul\":3032:3033   */\n      0x00\n        /* \"#utility.yul\":3049:3068   */\n      tag_83\n        /* \"#utility.yul\":3066:3067   */\n      dup3\n        /* \"#utility.yul\":3049:3068   */\n      tag_35\n      jump\t// in\n    tag_83:\n        /* \"#utility.yul\":3044:3068   */\n      swap2\n      pop\n        /* \"#utility.yul\":3082:3101   */\n      tag_84\n        /* \"#utility.yul\":3099:3100   */\n      dup4\n        /* \"#utility.yul\":3082:3101   */\n      tag_35\n      jump\t// in\n    tag_84:\n        /* \"#utility.yul\":3077:3101   */\n      swap3\n      pop\n        /* \"#utility.yul\":3120:3121   */\n      dup3\n        /* \"#utility.yul\":3110:3145   */\n      tag_85\n      jumpi\n        /* \"#utility.yul\":3125:3143   */\n      tag_86\n      tag_42\n      jump\t// in\n    tag_86:\n        /* \"#utility.yul\":3110:3145   */\n    tag_85:\n        /* \"#utility.yul\":3167:3168   */\n      dup3\n        /* \"#utility.yul\":3164:3165   */\n      dup3\n        /* \"#utility.yul\":3160:3169   */\n      div\n        /* \"#utility.yul\":3155:3169   */\n      swap1\n      pop\n        /* \"#utility.yul\":2993:3175   */\n      swap3\n      swap2\n      pop\n      pop\n      jump\t// out\n\n    auxdata: 0xa2646970667358221220fe1061a72759feed45532ba859cff0c301ebccf33c03110cf50abbeabb9fc2c264736f6c634300081b0033\n}\n",
				"bytecode": {
					"linkReferences": {},
					"object": "6080604052348015600e575f5ffd5b5061037e8061001c5f395ff3fe608060405234801561000f575f5ffd5b506004361061003f575f3560e01c806339f172b81461004357806367e0badb14610073578063799a3f8814610092575b5f5ffd5b61005d6004803603810190610058919061019e565b6100b0565b60405161006a91906101e3565b60405180910390f35b61007b6100d9565b60405161008992919061020b565b60405180910390f35b61009a610119565b6040516100a79190610232565b60405180910390f35b5f815f5f6101000a81548163ffffffff021916908363ffffffff16021790555060019050919050565b5f5f5f5f9054906101000a900463ffffffff1691505f601990505f5f6100ff858461012d565b509150915080826101109190610278565b93505050509091565b5f5f9054906101000a900463ffffffff1681565b5f5f5f838561013c91906102af565b9250838561014a9190610278565b905083856101589190610318565b91509250925092565b5f5ffd5b5f63ffffffff82169050919050565b61017d81610165565b8114610187575f5ffd5b50565b5f8135905061019881610174565b92915050565b5f602082840312156101b3576101b2610161565b5b5f6101c08482850161018a565b91505092915050565b5f8115159050919050565b6101dd816101c9565b82525050565b5f6020820190506101f65f8301846101d4565b92915050565b61020581610165565b82525050565b5f60408201905061021e5f8301856101fc565b61022b60208301846101fc565b9392505050565b5f6020820190506102455f8301846101fc565b92915050565b7f4e487b71000000000000000000000000000000000000000000000000000000005f52601160045260245ffd5b5f61028282610165565b915061028d83610165565b9250828201905063ffffffff8111156102a9576102a861024b565b5b92915050565b5f6102b982610165565b91506102c483610165565b92508282026102d281610165565b91508082146102e4576102e361024b565b5b5092915050565b7f4e487b71000000000000000000000000000000000000000000000000000000005f52601260045260245ffd5b5f61032282610165565b915061032d83610165565b92508261033d5761033c6102eb565b5b82820490509291505056fea2646970667358221220fe1061a72759feed45532ba859cff0c301ebccf33c03110cf50abbeabb9fc2c264736f6c634300081b0033",
					"opcodes": "PUSH1 0x80 PUSH1 0x40 MSTORE CALLVALUE DUP1 ISZERO PUSH1 0xE JUMPI PUSH0 PUSH0 REVERT JUMPDEST POP PUSH2 0x37E DUP1 PUSH2 0x1C PUSH0 CODECOPY PUSH0 RETURN INVALID PUSH1 0x80 PUSH1 0x40 MSTORE CALLVALUE DUP1 ISZERO PUSH2 0xF JUMPI PUSH0 PUSH0 REVERT JUMPDEST POP PUSH1 0x4 CALLDATASIZE LT PUSH2 0x3F JUMPI PUSH0 CALLDATALOAD PUSH1 0xE0 SHR DUP1 PUSH4 0x39F172B8 EQ PUSH2 0x43 JUMPI DUP1 PUSH4 0x67E0BADB EQ PUSH2 0x73 JUMPI DUP1 PUSH4 0x799A3F88 EQ PUSH2 0x92 JUMPI JUMPDEST PUSH0 PUSH0 REVERT JUMPDEST PUSH2 0x5D PUSH1 0x4 DUP1 CALLDATASIZE SUB DUP2 ADD SWAP1 PUSH2 0x58 SWAP2 SWAP1 PUSH2 0x19E JUMP JUMPDEST PUSH2 0xB0 JUMP JUMPDEST PUSH1 0x40 MLOAD PUSH2 0x6A SWAP2 SWAP1 PUSH2 0x1E3 JUMP JUMPDEST PUSH1 0x40 MLOAD DUP1 SWAP2 SUB SWAP1 RETURN JUMPDEST PUSH2 0x7B PUSH2 0xD9 JUMP JUMPDEST PUSH1 0x40 MLOAD PUSH2 0x89 SWAP3 SWAP2 SWAP1 PUSH2 0x20B JUMP JUMPDEST PUSH1 0x40 MLOAD DUP1 SWAP2 SUB SWAP1 RETURN JUMPDEST PUSH2 0x9A PUSH2 0x119 JUMP JUMPDEST PUSH1 0x40 MLOAD PUSH2 0xA7 SWAP2 SWAP1 PUSH2 0x232 JUMP JUMPDEST PUSH1 0x40 MLOAD DUP1 SWAP2 SUB SWAP1 RETURN JUMPDEST PUSH0 DUP2 PUSH0 PUSH0 PUSH2 0x100 EXP DUP2 SLOAD DUP2 PUSH4 0xFFFFFFFF MUL NOT AND SWAP1 DUP4 PUSH4 0xFFFFFFFF AND MUL OR SWAP1 SSTORE POP PUSH1 0x1 SWAP1 POP SWAP2 SWAP1 POP JUMP JUMPDEST PUSH0 PUSH0 PUSH0 PUSH0 SWAP1 SLOAD SWAP1 PUSH2 0x100 EXP SWAP1 DIV PUSH4 0xFFFFFFFF AND SWAP2 POP PUSH0 PUSH1 0x19 SWAP1 POP PUSH0 PUSH0 PUSH2 0xFF DUP6 DUP5 PUSH2 0x12D JUMP JUMPDEST POP SWAP2 POP SWAP2 POP DUP1 DUP3 PUSH2 0x110 SWAP2 SWAP1 PUSH2 0x278 JUMP JUMPDEST SWAP4 POP POP POP POP SWAP1 SWAP2 JUMP JUMPDEST PUSH0 PUSH0 SWAP1 SLOAD SWAP1 PUSH2 0x100 EXP SWAP1 DIV PUSH4 0xFFFFFFFF AND DUP2 JUMP JUMPDEST PUSH0 PUSH0 PUSH0 DUP4 DUP6 PUSH2 0x13C SWAP2 SWAP1 PUSH2 0x2AF JUMP JUMPDEST SWAP3 POP DUP4 DUP6 PUSH2 0x14A SWAP2 SWAP1 PUSH2 0x278 JUMP JUMPDEST SWAP1 POP DUP4 DUP6 PUSH2 0x158 SWAP2 SWAP1 PUSH2 0x318 JUMP JUMPDEST SWAP2 POP SWAP3 POP SWAP3 POP SWAP3 JUMP JUMPDEST PUSH0 PUSH0 REVERT JUMPDEST PUSH0 PUSH4 0xFFFFFFFF DUP3 AND SWAP1 POP SWAP2 SWAP1 POP JUMP JUMPDEST PUSH2 0x17D DUP2 PUSH2 0x165 JUMP JUMPDEST DUP2 EQ PUSH2 0x187 JUMPI PUSH0 PUSH0 REVERT JUMPDEST POP JUMP JUMPDEST PUSH0 DUP2 CALLDATALOAD SWAP1 POP PUSH2 0x198 DUP2 PUSH2 0x174 JUMP JUMPDEST SWAP3 SWAP2 POP POP JUMP JUMPDEST PUSH0 PUSH1 0x20 DUP3 DUP5 SUB SLT ISZERO PUSH2 0x1B3 JUMPI PUSH2 0x1B2 PUSH2 0x161 JUMP JUMPDEST JUMPDEST PUSH0 PUSH2 0x1C0 DUP5 DUP3 DUP6 ADD PUSH2 0x18A JUMP JUMPDEST SWAP2 POP POP SWAP3 SWAP2 POP POP JUMP JUMPDEST PUSH0 DUP2 ISZERO ISZERO SWAP1 POP SWAP2 SWAP1 POP JUMP JUMPDEST PUSH2 0x1DD DUP2 PUSH2 0x1C9 JUMP JUMPDEST DUP3 MSTORE POP POP JUMP JUMPDEST PUSH0 PUSH1 0x20 DUP3 ADD SWAP1 POP PUSH2 0x1F6 PUSH0 DUP4 ADD DUP5 PUSH2 0x1D4 JUMP JUMPDEST SWAP3 SWAP2 POP POP JUMP JUMPDEST PUSH2 0x205 DUP2 PUSH2 0x165 JUMP JUMPDEST DUP3 MSTORE POP POP JUMP JUMPDEST PUSH0 PUSH1 0x40 DUP3 ADD SWAP1 POP PUSH2 0x21E PUSH0 DUP4 ADD DUP6 PUSH2 0x1FC JUMP JUMPDEST PUSH2 0x22B PUSH1 0x20 DUP4 ADD DUP5 PUSH2 0x1FC JUMP JUMPDEST SWAP4 SWAP3 POP POP POP JUMP JUMPDEST PUSH0 PUSH1 0x20 DUP3 ADD SWAP1 POP PUSH2 0x245 PUSH0 DUP4 ADD DUP5 PUSH2 0x1FC JUMP JUMPDEST SWAP3 SWAP2 POP POP JUMP JUMPDEST PUSH32 0x4E487B7100000000000000000000000000000000000000000000000000000000 PUSH0 MSTORE PUSH1 0x11 PUSH1 0x4 MSTORE PUSH1 0x24 PUSH0 REVERT JUMPDEST PUSH0 PUSH2 0x282 DUP3 PUSH2 0x165 JUMP JUMPDEST SWAP2 POP PUSH2 0x28D DUP4 PUSH2 0x165 JUMP JUMPDEST SWAP3 POP DUP3 DUP3 ADD SWAP1 POP PUSH4 0xFFFFFFFF DUP2 GT ISZERO PUSH2 0x2A9 JUMPI PUSH2 0x2A8 PUSH2 0x24B JUMP JUMPDEST JUMPDEST SWAP3 SWAP2 POP POP JUMP JUMPDEST PUSH0 PUSH2 0x2B9 DUP3 PUSH2 0x165 JUMP JUMPDEST SWAP2 POP PUSH2 0x2C4 DUP4 PUSH2 0x165 JUMP JUMPDEST SWAP3 POP DUP3 DUP3 MUL PUSH2 0x2D2 DUP2 PUSH2 0x165 JUMP JUMPDEST SWAP2 POP DUP1 DUP3 EQ PUSH2 0x2E4 JUMPI PUSH2 0x2E3 PUSH2 0x24B JUMP JUMPDEST JUMPDEST POP SWAP3 SWAP2 POP POP JUMP JUMPDEST PUSH32 0x4E487B7100000000000000000000000000000000000000000000000000000000 PUSH0 MSTORE PUSH1 0x12 PUSH1 0x4 MSTORE PUSH1 0x24 PUSH0 REVERT JUMPDEST PUSH0 PUSH2 0x322 DUP3 PUSH2 0x165 JUMP JUMPDEST SWAP2 POP PUSH2 0x32D DUP4 PUSH2 0x165 JUMP JUMPDEST SWAP3 POP DUP3 PUSH2 0x33D JUMPI PUSH2 0x33C PUSH2 0x2EB JUMP JUMPDEST JUMPDEST DUP3 DUP3 DIV SWAP1 POP SWAP3 SWAP2 POP POP JUMP INVALID LOG2 PUSH5 0x6970667358 0x22 SLT KECCAK256 INVALID LT PUSH2 0xA727 MSIZE INVALID 0xED GASLIMIT MSTORE8 0x2B 0xA8 MSIZE 0xCF CREATE 0xC3 ADD 0xEB 0xCC RETURN EXTCODECOPY SUB GT 0xC CREATE2 EXP 0xBB 0xEA 0xBB SWAP16 0xC2 0xC2 PUSH5 0x736F6C6343 STOP ADDMOD SHL STOP CALLER "
				},
				"gasEstimates": {
					"creation": {
						"codeDepositCost": "178800",
						"executionCost": "218",
						"totalCost": "179018"
					},
					"external": {
						"getNum()": "infinite",
						"setNum(uint32)": "24848",
						"vaultNumber()": "2487"
					},
					"internal": {
						"calcReward(uint32,uint32)": "infinite"
					}
				},
				"methodIdentifiers": {
					"getNum()": "67e0badb",
					"setNum(uint32)": "39f172b8",
					"vaultNumber()": "799a3f88"
				}
			},
			"storageLayout": {
				"storage": [
					{
						"astId": 3,
						"contract": "contracts/SimpleStorage.sol:SimpleStorage",
						"label": "vaultNumber",
						"offset": 0,
						"slot": "0",
						"type": "t_uint32"
					}
				],
				"types": {
					"t_uint32": {
						"encoding": "inplace",
						"label": "uint32",
						"numberOfBytes": "4"
					}
				}
			},
			"userdoc": {
				"kind": "user",
				"methods": {},
				"version": 1
			}
		}
	}
}